{
  "contractName": "Voting",
  "abi": [
    {
      "constant": true,
      "inputs": [
        {
          "name": "",
          "type": "uint256"
        }
      ],
      "name": "candidateList",
      "outputs": [
        {
          "name": "",
          "type": "bytes32"
        }
      ],
      "payable": false,
      "stateMutability": "view",
      "type": "function"
    },
    {
      "constant": true,
      "inputs": [
        {
          "name": "",
          "type": "bytes32"
        }
      ],
      "name": "votesRecieved",
      "outputs": [
        {
          "name": "",
          "type": "uint8"
        }
      ],
      "payable": false,
      "stateMutability": "view",
      "type": "function"
    },
    {
      "inputs": [
        {
          "name": "candidateNames",
          "type": "bytes32[]"
        }
      ],
      "payable": false,
      "stateMutability": "nonpayable",
      "type": "constructor"
    },
    {
      "constant": false,
      "inputs": [
        {
          "name": "candidate",
          "type": "bytes32"
        }
      ],
      "name": "voteForCandidate",
      "outputs": [],
      "payable": false,
      "stateMutability": "nonpayable",
      "type": "function"
    },
    {
      "constant": true,
      "inputs": [
        {
          "name": "candidate",
          "type": "bytes32"
        }
      ],
      "name": "validCandidate",
      "outputs": [
        {
          "name": "",
          "type": "bool"
        }
      ],
      "payable": false,
      "stateMutability": "view",
      "type": "function"
    }
  ],
  "bytecode": "0x608060405234801561001057600080fd5b50604051610377380380610377833981018060405281019080805182019291905050508060019080519060200190610049929190610050565b50506100c8565b828054828255906000526020600020908101928215610092579160200282015b82811115610091578251829060001916905591602001919060010190610070565b5b50905061009f91906100a3565b5090565b6100c591905b808211156100c15760008160009055506001016100a9565b5090565b90565b6102a0806100d76000396000f300608060405260043610610062576000357c0100000000000000000000000000000000000000000000000000000000900463ffffffff168063392e667814610067578063b13c744b146100b0578063cc9ab267146100f9578063f447b9481461012a575b600080fd5b34801561007357600080fd5b506100966004803603810190808035600019169060200190929190505050610175565b604051808215151515815260200191505060405180910390f35b3480156100bc57600080fd5b506100db600480360381019080803590602001909291905050506101d4565b60405180826000191660001916815260200191505060405180910390f35b34801561010557600080fd5b5061012860048036038101908080356000191690602001909291905050506101f7565b005b34801561013657600080fd5b506101596004803603810190808035600019169060200190929190505050610254565b604051808260ff1660ff16815260200191505060405180910390f35b600080600090505b6001805490508110156101c957826000191660018281548110151561019e57fe5b90600052602060002001546000191614156101bc57600191506101ce565b808060010191505061017d565b600091505b50919050565b6001818154811015156101e357fe5b906000526020600020016000915090505481565b61020081610175565b151561020b57600080fd5b6001600080836000191660001916815260200190815260200160002060008282829054906101000a900460ff160192506101000a81548160ff021916908360ff16021790555050565b60006020528060005260406000206000915054906101000a900460ff16815600a165627a7a7230582058d2c8c90504be5f84ad1df635ff7c3219c8b8ed3bbfc8d15d602e98afbe89210029",
  "source": "pragma solidity ^0.4.18;\n\n contract Voting {\n  mapping (bytes32 => uint8) public votesRecieved;\n\n  bytes32[] public candidateList;\n\n  function Voting(bytes32[] candidateNames) public {\n    candidateList = candidateNames;\n  }\n\n  function voteForCandidate(bytes32 candidate) public {\n    require(validCandidate(candidate));\n    votesRecieved[candidate] += 1;\n  }\n\n  function validCandidate(bytes32 candidate) view public returns (bool) {\n    for(uint i = 0; i < candidateList.length; i++) {\n      if (candidateList[i] == candidate) {\n        return true;\n      }\n    }\n\n    return false;\n  }\n}",
  "sourcePath": "/Users/phanousitsyhakhom/Projects/kickedapp/contracts/Voting.sol",
  "compiler": {
    "name": "solc",
    "version": "0.4.24+commit.e67f0147.Emscripten.clang"
  },
  "schemaVersion": "2.0.0",
  "updatedAt": "2018-06-16T16:23:00.482Z"
}