{
  "contractName": "Vote",
  "abi": [
    {
      "constant": true,
      "inputs": [
        {
          "name": "",
          "type": "uint256"
        }
      ],
      "name": "Candidates",
      "outputs": [
        {
          "name": "name",
          "type": "string"
        },
        {
          "name": "party",
          "type": "uint8"
        },
        {
          "name": "votes",
          "type": "uint256"
        }
      ],
      "payable": false,
      "stateMutability": "view",
      "type": "function"
    },
    {
      "constant": true,
      "inputs": [],
      "name": "owner",
      "outputs": [
        {
          "name": "",
          "type": "address"
        }
      ],
      "payable": false,
      "stateMutability": "view",
      "type": "function"
    },
    {
      "inputs": [],
      "payable": false,
      "stateMutability": "nonpayable",
      "type": "constructor"
    },
    {
      "anonymous": false,
      "inputs": [
        {
          "indexed": false,
          "name": "name",
          "type": "string"
        },
        {
          "indexed": false,
          "name": "party",
          "type": "uint8"
        }
      ],
      "name": "newCandidate",
      "type": "event"
    },
    {
      "anonymous": false,
      "inputs": [
        {
          "indexed": false,
          "name": "name",
          "type": "string"
        },
        {
          "indexed": false,
          "name": "voteCount",
          "type": "uint256"
        }
      ],
      "name": "newVote",
      "type": "event"
    },
    {
      "constant": false,
      "inputs": [
        {
          "name": "name",
          "type": "string"
        },
        {
          "name": "party",
          "type": "uint8"
        }
      ],
      "name": "addCandidate",
      "outputs": [
        {
          "name": "candidateCount",
          "type": "uint256"
        }
      ],
      "payable": false,
      "stateMutability": "nonpayable",
      "type": "function"
    },
    {
      "constant": false,
      "inputs": [
        {
          "name": "accountId",
          "type": "address"
        }
      ],
      "name": "registerVoter",
      "outputs": [
        {
          "name": "",
          "type": "bool"
        }
      ],
      "payable": false,
      "stateMutability": "nonpayable",
      "type": "function"
    },
    {
      "constant": false,
      "inputs": [
        {
          "name": "candidate",
          "type": "string"
        }
      ],
      "name": "castVote",
      "outputs": [
        {
          "name": "",
          "type": "bool"
        }
      ],
      "payable": false,
      "stateMutability": "nonpayable",
      "type": "function"
    },
    {
      "constant": true,
      "inputs": [
        {
          "name": "index",
          "type": "uint256"
        }
      ],
      "name": "getVotes",
      "outputs": [
        {
          "name": "",
          "type": "uint256"
        }
      ],
      "payable": false,
      "stateMutability": "view",
      "type": "function"
    }
  ],
  "bytecode": "0x608060405234801561001057600080fd5b50336000806101000a81548173ffffffffffffffffffffffffffffffffffffffff021916908373ffffffffffffffffffffffffffffffffffffffff160217905550610ead806100606000396000f300608060405260043610610078576000357c0100000000000000000000000000000000000000000000000000000000900463ffffffff168063290e92121461007d57806338db6dd31461013f5780638da5cb5b1461019a5780639cc2d993146101f1578063e0c2eb0214610272578063ff981099146102fc575b600080fd5b34801561008957600080fd5b506100a86004803603810190808035906020019092919050505061033d565b60405180806020018460048111156100bc57fe5b60ff168152602001838152602001828103825285818151815260200191508051906020019080838360005b838110156101025780820151818401526020810190506100e7565b50505050905090810190601f16801561012f5780820380516001836020036101000a031916815260200191505b5094505050505060405180910390f35b34801561014b57600080fd5b50610180600480360381019080803573ffffffffffffffffffffffffffffffffffffffff16906020019092919050505061041b565b604051808215151515815260200191505060405180910390f35b3480156101a657600080fd5b506101af6106d8565b604051808273ffffffffffffffffffffffffffffffffffffffff1673ffffffffffffffffffffffffffffffffffffffff16815260200191505060405180910390f35b3480156101fd57600080fd5b50610258600480360381019080803590602001908201803590602001908080601f01602080910402602001604051908101604052809392919081815260200183838082843782019150505050505091929192905050506106fd565b604051808215151515815260200191505060405180910390f35b34801561027e57600080fd5b506102e6600480360381019080803590602001908201803590602001908080601f0160208091040260200160405190810160405280939291908181526020018383808284378201915050505050509192919290803560ff169060200190929190505050610a98565b6040518082815260200191505060405180910390f35b34801561030857600080fd5b5061032760048036038101908080359060200190929190505050610d53565b6040518082815260200191505060405180910390f35b60018181548110151561034c57fe5b9060005260206000209060030201600091509050806000018054600181600116156101000203166002900480601f0160208091040260200160405190810160405280929190818152602001828054600181600116156101000203166002900480156103f85780601f106103cd576101008083540402835291602001916103f8565b820191906000526020600020905b8154815290600101906020018083116103db57829003601f168201915b5050505050908060010160009054906101000a900460ff16908060020154905083565b6000610425610d7d565b3373ffffffffffffffffffffffffffffffffffffffff166000809054906101000a900473ffffffffffffffffffffffffffffffffffffffff1673ffffffffffffffffffffffffffffffffffffffff161415156104e9576040517f08c379a00000000000000000000000000000000000000000000000000000000081526004018080602001828103825260168152602001807f4f6e6c79206f776e657220697320616c6c6f7765642e0000000000000000000081525060200191505060405180910390fd5b826000600260008373ffffffffffffffffffffffffffffffffffffffff1673ffffffffffffffffffffffffffffffffffffffff16815260200190815260200160002060000160009054906101000a900473ffffffffffffffffffffffffffffffffffffffff1673ffffffffffffffffffffffffffffffffffffffff161415156105da576040517f08c379a000000000000000000000000000000000000000000000000000000000815260040180806020018281038252601a8152602001807f5468697320766f7465722065786973747320616c72656164792e00000000000081525060200191505060405180910390fd5b83826000019073ffffffffffffffffffffffffffffffffffffffff16908173ffffffffffffffffffffffffffffffffffffffff1681525050600082602001901515908115158152505081600260008673ffffffffffffffffffffffffffffffffffffffff1673ffffffffffffffffffffffffffffffffffffffff16815260200190815260200160002060008201518160000160006101000a81548173ffffffffffffffffffffffffffffffffffffffff021916908373ffffffffffffffffffffffffffffffffffffffff16021790555060208201518160000160146101000a81548160ff021916908315150217905550905050600192505050919050565b6000809054906101000a900473ffffffffffffffffffffffffffffffffffffffff1681565b6000803373ffffffffffffffffffffffffffffffffffffffff16600260003373ffffffffffffffffffffffffffffffffffffffff1673ffffffffffffffffffffffffffffffffffffffff16815260200190815260200160002060000160009054906101000a900473ffffffffffffffffffffffffffffffffffffffff1673ffffffffffffffffffffffffffffffffffffffff16141515610805576040517f08c379a000000000000000000000000000000000000000000000000000000000815260040180806020018281038252601e8152602001807f596f7520617265206e6f742061207265676973746572656420766f746572000081525060200191505060405180910390fd5b60011515600260003373ffffffffffffffffffffffffffffffffffffffff1673ffffffffffffffffffffffffffffffffffffffff16815260200190815260200160002060000160149054906101000a900460ff161515141515156108d1576040517f08c379a00000000000000000000000000000000000000000000000000000000081526004018080602001828103825260178152602001807f596f75206861766520616c726561647920766f7465642e00000000000000000081525060200191505060405180910390fd5b6003836040518082805190602001908083835b60208310151561090957805182526020820191506020810190506020830392506108e4565b6001836020036101000a038019825116818451168082178552505050505050905001915050908152602001604051809103902054905060018181548110151561094e57fe5b9060005260206000209060030201600201600081548092919060010191905055506001600260003373ffffffffffffffffffffffffffffffffffffffff1673ffffffffffffffffffffffffffffffffffffffff16815260200190815260200160002060000160146101000a81548160ff0219169083151502179055507f7e055491c43f8ff46b52324380c391431cb1f59a45780936114bc683e80042e5836001838154811015156109fb57fe5b9060005260206000209060030201600201546040518080602001838152602001828103825284818151815260200191508051906020019080838360005b83811015610a53578082015181840152602081019050610a38565b50505050905090810190601f168015610a805780820380516001836020036101000a031916815260200191505b50935050505060405180910390a16001915050919050565b6000610aa2610daf565b3373ffffffffffffffffffffffffffffffffffffffff166000809054906101000a900473ffffffffffffffffffffffffffffffffffffffff1673ffffffffffffffffffffffffffffffffffffffff16141515610b66576040517f08c379a00000000000000000000000000000000000000000000000000000000081526004018080602001828103825260168152602001807f4f6e6c79206f776e657220697320616c6c6f7765642e0000000000000000000081525060200191505060405180910390fd5b8381600001819052508281602001906004811115610b8057fe5b90816004811115610b8d57fe5b815250506000816040018181525050600181908060018154018082558091505090600182039060005260206000209060030201600090919290919091506000820151816000019080519060200190610be6929190610ddc565b5060208201518160010160006101000a81548160ff02191690836004811115610c0b57fe5b02179055506040820151816002015550505060018080549050036003856040518082805190602001908083835b602083101515610c5d5780518252602082019150602081019050602083039250610c38565b6001836020036101000a038019825116818451168082178552505050505050905001915050908152602001604051809103902050507f55657d3305d94d050ee5e817eec2d09fed6e1fb638e74b6666e85f416be3d1ba84846040518080602001836004811115610cc957fe5b60ff168152602001828103825284818151815260200191508051906020019080838360005b83811015610d09578082015181840152602081019050610cee565b50505050905090810190601f168015610d365780820380516001836020036101000a031916815260200191505b50935050505060405180910390a160018054905091505092915050565b6000600182815481101515610d6457fe5b9060005260206000209060030201600201549050919050565b6040805190810160405280600073ffffffffffffffffffffffffffffffffffffffff1681526020016000151581525090565b6060604051908101604052806060815260200160006004811115610dcf57fe5b8152602001600081525090565b828054600181600116156101000203166002900490600052602060002090601f016020900481019282601f10610e1d57805160ff1916838001178555610e4b565b82800160010185558215610e4b579182015b82811115610e4a578251825591602001919060010190610e2f565b5b509050610e589190610e5c565b5090565b610e7e91905b80821115610e7a576000816000905550600101610e62565b5090565b905600a165627a7a723058207765ccce11a23d7922d78bd3b7be3c78d344bcac847a8997868d3380187054ee0029",
  "source": "pragma solidity ^0.4.20;\n\ncontract Vote {\n    address public owner;\n    \n    enum Party { Democrat, Republican, Green, Libertarian, Independant }\n    \n    struct Candidate {\n        string name;\n        Party party;\n        uint votes;\n    }\n    \n    // candidates stuff\n    Candidate[] public Candidates;\n    \n    constructor () public {\n        owner = msg.sender;\n    }\n    \n    modifier onlyOwner() {\n        require(\n                owner == msg.sender,\n                \"Only owner is allowed.\"\n            );\n        _;\n    }\n    \n    struct Voter {\n        address id;\n        bool hasVoted;\n    }\n    \n    // voters stuff\n    //address where every address is id and value is bool\n    mapping(address => Voter) private voters;\n    \n    mapping(string => uint) private candidateIndex;\n        \n    modifier isUnregistered(address account) {\n        require(\n                voters[account].id == 0,\n                \"This voter exists already.\"\n            );\n         _;   \n    }\n    \n    modifier isVoter() {\n        require(\n            voters[msg.sender].id == msg.sender,\n            \"You are not a registered voter\"\n        );\n        require(\n            voters[msg.sender].hasVoted != true,\n            \"You have already voted.\"\n        );\n        _;   \n    }\n    \n    event newCandidate(string name, Party party);\n    \n    event newVote(string name, uint voteCount);\n    \n    function addCandidate (string name, Party party) onlyOwner public returns (uint candidateCount) {\n        Candidate memory candidate;\n        // bytes32\n        candidate.name = name;\n        // enum\n        candidate.party = party;\n        candidate.votes = 0; \n        \n        Candidates.push(candidate);\n        candidateIndex[name] == Candidates.length - 1;\n        emit newCandidate(name, party);\n         \n        return Candidates.length;\n    }\n    \n     function registerVoter (address accountId) onlyOwner isUnregistered(accountId) public returns (bool) {\n        Voter memory voter;\n        voter.id = accountId;\n        voter.hasVoted = false;\n        voters[accountId] = voter;\n        return true;\n    }\n    \n    function castVote (string candidate) public isVoter returns (bool) {\n        //  Cadvotes++;\n        uint index = candidateIndex[candidate];\n       Candidates[index].votes++;\n        voters[msg.sender].hasVoted = true;\n        emit newVote(candidate, Candidates[index].votes);\n        \n        return true;\n    }\n    \n    function getVotes(uint index) public view returns (uint) {\n        return Candidates[index].votes;\n    }\n    \n}",
  "sourcePath": "/Users/phanousitsyhakhom/Projects/kickedapp/contracts/Vote.sol",
  "compiler": {
    "name": "solc",
    "version": "0.4.24+commit.e67f0147.Emscripten.clang"
  },
  "schemaVersion": "2.0.0",
  "updatedAt": "2018-06-18T13:38:55.304Z"
}